{
  "contractName": "VendingMachine",
  "abi": [
    {
      "inputs": [],
      "stateMutability": "nonpayable",
      "type": "constructor"
    },
    {
      "inputs": [
        {
          "internalType": "address",
          "name": "",
          "type": "address"
        }
      ],
      "name": "donutBalances",
      "outputs": [
        {
          "internalType": "uint256",
          "name": "",
          "type": "uint256"
        }
      ],
      "stateMutability": "view",
      "type": "function"
    },
    {
      "inputs": [],
      "name": "owner",
      "outputs": [
        {
          "internalType": "address",
          "name": "",
          "type": "address"
        }
      ],
      "stateMutability": "view",
      "type": "function"
    },
    {
      "inputs": [],
      "name": "getVendingMachineBalance",
      "outputs": [
        {
          "internalType": "uint256",
          "name": "",
          "type": "uint256"
        }
      ],
      "stateMutability": "view",
      "type": "function"
    },
    {
      "inputs": [
        {
          "internalType": "uint256",
          "name": "amount",
          "type": "uint256"
        }
      ],
      "name": "restock",
      "outputs": [],
      "stateMutability": "nonpayable",
      "type": "function"
    },
    {
      "inputs": [
        {
          "internalType": "uint256",
          "name": "amount",
          "type": "uint256"
        }
      ],
      "name": "purchase",
      "outputs": [],
      "stateMutability": "payable",
      "type": "function"
    }
  ],
  "bytecode": "0x608060405234801561001057600080fd5b50336000806101000a81548173ffffffffffffffffffffffffffffffffffffffff021916908373ffffffffffffffffffffffffffffffffffffffff1602179055506064600160003073ffffffffffffffffffffffffffffffffffffffff1673ffffffffffffffffffffffffffffffffffffffff1681526020019081526020016000208190555061086f806100a56000396000f3fe60806040526004361061004a5760003560e01c80638da5cb5b1461004f5780639a020d8a1461007a578063c21a702a146100b7578063e7644d34146100e0578063efef39a11461010b575b600080fd5b34801561005b57600080fd5b50610064610127565b6040516100719190610459565b60405180910390f35b34801561008657600080fd5b506100a1600480360381019061009c91906104a5565b61014b565b6040516100ae91906104eb565b60405180910390f35b3480156100c357600080fd5b506100de60048036038101906100d99190610532565b610163565b005b3480156100ec57600080fd5b506100f561024a565b60405161010291906104eb565b60405180910390f35b61012560048036038101906101209190610532565b610291565b005b60008054906101000a900473ffffffffffffffffffffffffffffffffffffffff1681565b60016020528060005260406000206000915090505481565b60008054906101000a900473ffffffffffffffffffffffffffffffffffffffff1673ffffffffffffffffffffffffffffffffffffffff163373ffffffffffffffffffffffffffffffffffffffff16146101f1576040517f08c379a00000000000000000000000000000000000000000000000000000000081526004016101e8906105e2565b60405180910390fd5b80600160003073ffffffffffffffffffffffffffffffffffffffff1673ffffffffffffffffffffffffffffffffffffffff16815260200190815260200160002060008282546102409190610631565b9250508190555050565b6000600160003073ffffffffffffffffffffffffffffffffffffffff1673ffffffffffffffffffffffffffffffffffffffff16815260200190815260200160002054905090565b80600160003073ffffffffffffffffffffffffffffffffffffffff1673ffffffffffffffffffffffffffffffffffffffff168152602001908152602001600020541015610313576040517f08c379a000000000000000000000000000000000000000000000000000000000815260040161030a906106f9565b60405180910390fd5b671bc16d674ec80000816103279190610719565b341015610369576040517f08c379a0000000000000000000000000000000000000000000000000000000008152600401610360906107e5565b60405180910390fd5b80600160003073ffffffffffffffffffffffffffffffffffffffff1673ffffffffffffffffffffffffffffffffffffffff16815260200190815260200160002060008282546103b89190610805565b9250508190555080600160003373ffffffffffffffffffffffffffffffffffffffff1673ffffffffffffffffffffffffffffffffffffffff168152602001908152602001600020600082825461040e9190610631565b9250508190555050565b600073ffffffffffffffffffffffffffffffffffffffff82169050919050565b600061044382610418565b9050919050565b61045381610438565b82525050565b600060208201905061046e600083018461044a565b92915050565b600080fd5b61048281610438565b811461048d57600080fd5b50565b60008135905061049f81610479565b92915050565b6000602082840312156104bb576104ba610474565b5b60006104c984828501610490565b91505092915050565b6000819050919050565b6104e5816104d2565b82525050565b600060208201905061050060008301846104dc565b92915050565b61050f816104d2565b811461051a57600080fd5b50565b60008135905061052c81610506565b92915050565b60006020828403121561054857610547610474565b5b60006105568482850161051d565b91505092915050565b600082825260208201905092915050565b7f4f6e6c7920746865204f776e65722063616e20726573746f636b20746865206d60008201527f616368696e652e00000000000000000000000000000000000000000000000000602082015250565b60006105cc60278361055f565b91506105d782610570565b604082019050919050565b600060208201905081810360008301526105fb816105bf565b9050919050565b7f4e487b7100000000000000000000000000000000000000000000000000000000600052601160045260246000fd5b600061063c826104d2565b9150610647836104d2565b9250827fffffffffffffffffffffffffffffffffffffffffffffffffffffffffffffffff0382111561067c5761067b610602565b5b828201905092915050565b7f536f727279202c20446f206e6f74206861766520656e6f75676820646f6e757460008201527f2e00000000000000000000000000000000000000000000000000000000000000602082015250565b60006106e360218361055f565b91506106ee82610687565b604082019050919050565b60006020820190508181036000830152610712816106d6565b9050919050565b6000610724826104d2565b915061072f836104d2565b9250817fffffffffffffffffffffffffffffffffffffffffffffffffffffffffffffffff048311821515161561076857610767610602565b5b828202905092915050565b7f596f75206d75737420706179206174206c65617374203220657468657220706560008201527f7220646f6e757400000000000000000000000000000000000000000000000000602082015250565b60006107cf60278361055f565b91506107da82610773565b604082019050919050565b600060208201905081810360008301526107fe816107c2565b9050919050565b6000610810826104d2565b915061081b836104d2565b92508282101561082e5761082d610602565b5b82820390509291505056fea26469706673582212202b086d336b48299b7e7c9177ec5319409ad70dba648e9809bcec4f8ab35c16e464736f6c634300080b0033",
  "immutableReferences": {},
  "source": "//SPDX-Lisence-Identifier:GPL-3.0\r\n\r\npragma solidity 0.8.11;\r\n\r\ncontract VendingMachine{\r\n    address public owner;\r\n    mapping(address=>uint) public donutBalances;\r\n\r\n    constructor()  {\r\n        owner=msg.sender;\r\n        donutBalances[address(this)]=100;\r\n    }\r\n\r\n    function getVendingMachineBalance() public view returns(uint){\r\n        return donutBalances[address(this)];\r\n    }\r\n\r\n    function restock(uint amount) public {\r\n        require(msg.sender==owner,\"Only the Owner can restock the machine.\");\r\n        donutBalances[address(this)] += amount;\r\n    }\r\n\r\n    function purchase(uint amount) public payable {\r\n        require(donutBalances[address(this)] >= amount,\"Sorry , Do not have enough donut.\");\r\n        require(msg.value >= amount * 2 ether , \"You must pay at least 2 ether per donut\");\r\n        donutBalances[address(this)] -= amount;\r\n        donutBalances[msg.sender] += amount;\r\n    }\r\n}",
  "sourcePath": "C:\\Users\\ACT\\Desktop\\VendingMechine\\smartContract\\contracts\\VendingMachine.sol",
  "compiler": {
    "name": "solc",
    "version": "0.8.11+commit.d7f03943.Emscripten.clang"
  },
  "schemaVersion": "3.4.4",
  "updatedAt": "2022-02-09T09:31:12.673Z",
  "devdoc": {
    "kind": "dev",
    "methods": {},
    "version": 1
  },
  "userdoc": {
    "kind": "user",
    "methods": {},
    "version": 1
  }
}